S01700004D6F74696F6E416C61726D4D6567612E7372656330
S1130000E9C00000F9C00000F7C00000F5C000001E
S1130010F3C00000F1C00000EFC00000EDC000001C
S1130020EBC00000E9C00000E7C00000E5C000002C
S1130030E3C00000E1C00000DFC00000DDC000003C
S1130040DBC00000D9C00000D7C00000D5C000004C
S1130050D3C00000D1C00000CFC00000CDC000005C
S1130060CBC00000C9C00000C7C00000C5C000006C
S1130070C3C00000C1C00000BFC00000BDC000007C
S1130080BBC00000B9C00000B7C00000B5C000008C
S1130090B3C00000B1C00000AFC00000ADC000009C
S11300A0ABC00000A9C00000A7C00000A5C00000AC
S11300B0A3C00000A1C000009FC000003EC100001A
S11300C09BC0000099C0000097C0000095C00000CC
S11300D093C0000091C000008FC000008DC00000DC
S11300E08BC000003C014401440144013E01440131
S11300F040014201440144014401440144014401DA
S113010044014401440144014401440144014401C3
S113011044014401440144014401440144014401B3
S113012044014401440144014401440144014401A3
S11301304401440144014401440144014401440193
S11301404401440144014401440144014401440183
S11301504401440144014401440144014401440173
S11301604401440134014401440144013601440181
S113017038013A0144014401440144014401440169
S11301804401440144014401440144014401440143
S11301904401440144014401440144014401440133
S11301A0440144012C014401440144012E01440151
S11301B03001320144014401440144014401440139
S11301C0440144012601440144014401460144011F
S11301D028012A0111241FBECFEFD1E2DEBFCDBF1B
S11301E000E00CBF22E0A0E0B2E001C01D92A2300A
S11301F0B207E1F71BD273C403CF20E09FEE10C017
S113020090930801E9EFF0E03197F1F700C00000A6
S1130210809106018F708F3029F4990F9F5F2F5FB3
S1130220243070F3907F890F089580EF8093070145
S11302300895E3DF90E0FC01E757F109E837F105A1
S113024018F58827EE58FF4F8F4F32C48AE208957D
S113025084E3089581E3089580E3089588E308958D
S113026085E3089582E3089583E2089589E3089578
S113027086E3089583E3089584E4089583E4089568
S113028082E4089581E408958AE7089587E3089550
S1130290AC0190E012C0F999FECF292F30E032BDB5
S11302A021BDFA01E20FF31F208120BD2FB324608A
S11302B02FBB2FB322602FBB9F5F943060F3089550
S11302C0BC0190E00FC0F999FECF292F30E032BD78
S11302D021BD4FB341604FBBFB01E20FF31F40B59B
S11302E040839F5F943078F308951092CD0087E0A7
S11302F08093CC0088E18093C90086E08093CA0093
S113030008951092A000A1EAB0E01C92109220017E
S1130310E1E2F1E010828C9184608C9380818460AE
S1130320808384E294EF9093290180932801E3E78A
S1130330F0E080818260808308951F920F920FB64F
S11303400F9211248F93809100028F5F809300029B
S11303508F910F900FBE0F901F901895E0E9F0E079
S1130360808182688083E1E9F0E080818C61808310
S11303708DE790E0909397008093960008951092F3
S11303809000109291001092970010929600089598
S1130390AC0120E030E00BC02F5F3F4F8FE99FE0BE
S11303A00197F1F700C000004217530738F090910D
S11303B0C80099238CF78091CE0008958FEF08959B
S11303C09091C80095FFFCCF8093CE000895CF9202
S11303D0DF92EF92FF921F93CF93DF9310E0C0E080
S11303E0D0E030C08EB18F7E8EB98AE08A95F1F765
S11303F000C08EB180618EB980E58A95F1F78EB127
S11304008F7E8EB9659BFECF1092A5001092A4003A
S11304106599FECF6091A4007091A50080E090E002
S113042056D229E733E14DE85EE3DFD26B017C016C
S1130430BE0180E090E04BD2A7019601B8D11BD257
S1130440EB011F5F153070F29E01ADECBCEC38D3AC
S113045096958795969587958F3F910519F010F09D
S11304608FEF90E0DF91CF911F91FF90EF90DF909D
S1130470CF900895CF93C0E009C088EC90E088DF66
S11304808F3619F49DDF81E004C0CF5FC233A8F337
S113049080E0CF9108950F931F93CF938C018AEF3F
S11304A08FDFC0E0C6DE90ED980F9A3090F4C43030
S11304B080F4F801EC0FF11D8083CF5F81DF2FEF13
S11304C087E893E1215080409040E1F700C00000AC
S11304D0E9CF833289F4C43079F472DFC801D8DEFD
S11304E08BEF6EDF2FEF83ED90E32150804090403F
S11304F0E1F700C0000010C08A32A1F6CC2391F2CB
S1130500C1505EDF2FEF87E893E121508040904097
S1130510E1F700C00000C6CFCF911F910F9108955D
S1130520EF92FF920F931F93CF93DF9300D01F920C
S1130530CDB7DEB77C01062F8AEF42DF10E079DE0B
S1130540002399F0909100029B3078F083E238DF29
S11305508DEF36DF2FEF83ED90E321508040904004
S1130560E1F700C0000080E056C090ED980F9A308B
S1130570A8F4143098F4E1E0F0E0EC0FFD1FE10F73
S1130580F11D80831F5F1CDF2FEF87E893E121506B
S113059080409040E1F700C00000D1CF833229F4BD
S11305A0143019F40DDF20E020C08A3241F6112303
S11305B031F2115005DF2FEF87E893E1215080409D
S11305C09040E1F700C00000BACF822F90E0E1E054
S11305D0F0E0EC0FFD1FE80FF91F3081F701E80F81
S11305E0F91F8081381305C02F5F243070F311E0A8
S11305F001C010E0112319F08CEFE2DE02C08EEF8F
S1130600DFDE2FEF83ED90E3215080409040E1F74F
S113061000C00000812F0F900F900F900F90DF917A
S1130620CF911F910F91FF90EF900895CF93DF9397
S113063000D01F92CDB7DEB778942FEF87EA91E60A
S1130640215080409040E1F700C000008DB18061EE
S11306508DB98DB18F7D8DB98DB188608DB9CE0185
S113066001962EDE42DE4DDEE0DD04DF2FEF89E66B
S113067098E1215080409040E1F700C0000088EFED
S11306808093010280910102873F71F118F4863F43
S113069041F0F8CF883F09F45CC0893F09F471C088
S11306A0F1CF86EF8DDE2FEF87E893E12150804074
S11306B09040E1F700C00000BCDD833271F460E0DB
S11306C0CE0101962DDF882321F088EF809301026B
S11306D0D9CF89EF80930102D5CF79DE8E3160F7CF
S11306E087EF80930102CECF87EF6ADE1092250157
S11306F010922401109200022FEF87E893E1215019
S113070080409040E1F700C0000093DD833271F433
S113071061E0CE01019604DF882321F088EF809305
S11307200102B0CF89EF80930102ACCF8091000227
S11307308B3058F38DEF44DE2FEF83ED90E321509F
S113074080409040E1F700C0000089EF80930102EF
S113075099CF88EF35DE2FEF87E893E12150804071
S11307609040E1F700C0000064DD8A3221F4CE013C
S1130770019691DE87CF8332B9F786EF8093010229
S113078081CFECDD2FEF83ED90E32150804090404A
S1130790E1F700C0000060E0CE010196C1DE8823CD
S11307A0D1F3EDDD88EF809301026CCF5058BB2765
S11307B0AA270ED0E0C0D1D030F0D6D020F031F44A
S11307C09F3F11F41EF4C6C00EF4E095E7FBBCC0D5
S11307D0E92FE2D080F3BA176207730784079507FD
S11307E018F071F49EF5FAC00EF4E0950B2EBA2FB2
S11307F0A02D0B01B90190010C01CA01A001112423
S1130800FF27591B99F0593F50F4503E68F11A16CE
S1130810F040A22F232F342F4427585FF3CF46955F
S113082037952795A795F0405395C9F77EF41F1681
S1130830BA0B620B730B840BBAF09150A1F0FF0F4B
S1130840BB1F661F771F881FC2F70EC0BA0F621F37
S1130850731F841F48F4879577956795B795F79527
S11308609E3F08F0B3CF9395880F08F09927EE0FB9
S113087097958795089598D088F09F5790F0B92F51
S11308809927B751A0F0D1F0660F771F881F991FE1
S11308901AF0BA95C9F712C0B13081F09FD0B1E017
S11308A008959CC0672F782F8827B85F39F0B93F27
S11308B0CCF3869577956795B395D9F73EF49095E3
S11308C08095709561957F4F8F4F9F4F0895E89461
S11308D009C097FB3EF490958095709561957F4F84
S11308E08F4F9F4F9923A9F0F92F96E9BB27939532
S11308F0F695879577956795B795F111F8CFFAF442
S1130900BB0F11F460FF1BC06F5F7F4F8F4F9F4F72
S113091016C0882311F096E911C0772321F09EE8D0
S1130920872F762F05C0662371F096E8862F70E036
S113093060E02AF09A95660F771F881FDAF7880F10
S11309409695879597F9089597F99F6780E870E0E1
S113095060E008959FEF80EC089500240A94161631
S1130960170618060906089500240A941216130699
S1130970140605060895092E0394000C11F4882327
S113098052F0BB0F40F4BF2B11F460FF04C06F5F43
S11309907F4F8F4F9F4F089557FD9058440F551F19
S11309A059F05F3F71F04795880F97FB991F61F0ED
S11309B09F3F79F087950895121613061406551F64
S11309C0F2CF4695F1DF08C0161617061806991FD0
S11309D0F1CF86957105610508940895E894BB27C5
S11309E066277727CB0197F908950BD0C4CFB5DFDD
S11309F028F0BADF18F0952309F0A6CFABCF112465
S1130A00EECFCADFA0F3959FD1F3950F50E0551FA9
S1130A10629FF001729FBB27F00DB11D639FAA274F
S1130A20F00DB11DAA1F649F6627B00DA11D661F9E
S1130A30829F2227B00DA11D621F739FB00DA11DBF
S1130A40621F839FA00D611D221F749F3327A00D79
S1130A50611D231F849F600D211D822F762F6A2F15
S1130A6011249F5750408AF0E1F088234AF0EE0F9A
S1130A70FF1FBB1F661F771F881F91505040A9F7A7
S1130A809E3F510570F060CFAACF5F3FECF3983ED4
S1130A90DCF3869577956795B795F795E7959F5F0E
S1130AA0C1F7FE2B880F911D9695879597F90895A8
S1130AB0EE0FFF1F881F8BBF0790F691E02D19944E
S1130AC0A29FB001B39FC001A39F700D811D11248B
S1130AD0911DB29F700D811D1124911D0895F894EC
S1050AE0FFCF42
S9030000FC
