:100000000C9434000C9449000C9449000C94490061
:100010000C9449000C9449000C9449000C9449003C
:100020000C9449000C9449000C9449000C9449002C
:100030000C9449000C9449000C9449000C9449001C
:100040000C9449000C9449000C9449000C9449000C
:100050000C9449000C9449000C9449000C944900FC
:100060000C9449000C94490011241FBECFEFD8E036
:10007000DEBFCDBF11E0A0E0B1E0E0E4F5E002C0FA
:1000800005900D92A83BB107D9F70E94DD010C94B1
:100090009E020C94000085B1886085B9000085B18E
:1000A000877F85B90895CF93C82F662321F085B146
:1000B000826085B903C085B18D7F85B985B18B7F9D
:1000C00085B98AB188608AB98AB180618AB98AB1F2
:1000D00080628AB98AB180648AB98BB18F7B8BB90F
:1000E0008BB18F7D8BB98BB18F7E8BB98BB1877FB5
:1000F0008BB9CC231CF48BB180648BB9C6FF03C0D1
:100100008BB180628BB9C5FF03C08BB180618BB9A5
:10011000C4FF03C08BB188608BB90E944B008BB1C8
:100120008F7B8BB98BB18F7D8BB98BB18F7E8BB968
:100130008BB1877F8BB9C3FF03C08BB180648BB950
:10014000C2FF03C08BB180628BB9C1FF03C08BB10A
:1001500080618BB9C0FF03C08BB188608BB90E94EE
:100160004B008BB188608BB98BB180618BB98BB13F
:1001700080628BB98BB180648BB9CF91089588234D
:1001800021F085B1826085B903C085B18D7F85B9C5
:1001900085B1846085B98AB1877F8AB98AB18F7E3B
:1001A0008AB98AB18F7D8AB98AB18F7B8AB985B1C4
:1001B000886085B900004B9902C080E001C080E1F1
:1001C0004C9980624D9980644E99806895B1977F73
:1001D00095B9000095B1986095B900004B99816080
:1001E0004C9982604D9984604E99886095B1977F53
:1001F00095B9089580E00E94BF008823DCF300C019
:1002000000C080E00E94BF000895CF93C82F0E94D5
:10021000FA0060E08C2F0E945300CF910895611185
:1002200004C080580E940501089580540E94050171
:10023000089581E00E9405010895CF93C82F0E9480
:10024000FA00CA3049F4803410F480E401C080E040
:1002500080580E94050104C061E08C2F0E94530069
:10026000CF910895CF93DF93FC0103C00E941D013D
:10027000FE01EF01219680818111F8CFDF91CF91AE
:100280000895CF93C82F84B1826084B984B184600B
:1002900084B984B1886084B98AB188608AB98AB126
:1002A00080618AB98AB180628AB98AB180648AB968
:1002B0008FE99FE00197F1F700C000008BB18061EA
:1002C0008BB98BB188608BB90E944B0081EE94E0B2
:1002D0000197F1F700C000000E944B0095E19A954C
:1002E000F1F700000E944B0085E18A95F1F70000CC
:1002F0008BB1877F8BB90E944B0095E19A95F1F7FE
:10030000000088E20E94050188E00E9405010E9429
:10031000190186E00E9405018C2F0E940501CF91F2
:1003200008951092C50087E08093C40088E180930F
:10033000C10086E08093C20008959091C00095FFAF
:10034000FCCF8093C6000895AC0185B1806285B969
:1003500020E030E010C02F5F3F4F8FE99FE0019712
:10036000F1F700C000004217530728F485B18F7DD4
:1003700085B98FEF08959091C000992364F785B1F6
:100380008F7D85B98091C6000895CF9380E091E07C
:100390000E943201C0E00AC08FE60E949D0188ECF5
:1003A00090E00E94A4018F3629F0CF5FC233A0F302
:1003B00080E001C081E0CF910895CF93DF938CE07E
:1003C0000E9441010E9491012FEF87EA91E621509E
:1003D00080409040E1F700C000000E94C5018823E2
:1003E00009F4A1C00E9419018EE091E00E9432013F
:1003F00088EE93E00E94A401C82F883FE1F028F422
:10040000863F59F0873F81F084C08D3FD9F08F3F00
:1004100079F38A3F09F07DC01CC00E94190186E271
:1004200091E00E943201E4CF0E94190182E391E041
:100430000E943201DDCF0E94190182E491E00E9406
:100440003201D6CF0E94190181E591E00E9432016C
:10045000CFCF0E9419018FE591E00E94320161E047
:1004600080E00E940F01C0E0D0E01CC088EE93E065
:100470000E94A401C82F80ED8C0F8A3028F48C2FA5
:100480000E941D01DF5F0EC0CA3261F4D15061E0ED
:100490008D2F0E940F0180E20E941D0161E08D2FCF
:1004A0000E940F01C33211F780ED97E00E94A40172
:1004B000C82F0E941901CC3F81F028F4C83F91F069
:1004C000CB3F31F01EC0CD3FB9F0CE3F81F019C017
:1004D0008FE691E00E9432018BCF8CE791E00E9481
:1004E000320186CF82E491E00E94320181CF8DE813
:1004F00091E00E9432017CCF81E591E00E943201BF
:1005000077CF8CE991E00E9432018C2F0E941D016F
:100510006FCF0E94190188EA91E00E9432018C2F6E
:100520000E941D0165CF0E94190188E191E00E949F
:10053000320180E090E0DF91CF910895F894FFCFF1
:10054000436F6E6E656374696E672E2E2E00436F67
:100550006E6E6563746564004E6F7420636F6E6EBB
:10056000656374656400416C61726D2061726D65D4
:1005700064004D6F74696F6E2064657465637465A3
:100580006400416C61726D2064697361726D6564B1
:1005900000416C61726D2074696D656F75740049FE
:1005A0006E7075742070617373776F72643A005067
:1005B000617373776F72642073657400436F727236
:1005C0006563742070617373776F72640057726F24
:1005D0006E672070617373776F726400696E7075F7
:1005E00074206572726F7200556E6B6E6F776E203D
:0805F000646174613A2000000F
:00000001FF
